{
  "contractName": "ScoreStore",
  "abi": [
    {
      "inputs": [
        {
          "internalType": "string",
          "name": "",
          "type": "string"
        }
      ],
      "name": "PersonScores",
      "outputs": [
        {
          "internalType": "int256",
          "name": "",
          "type": "int256"
        }
      ],
      "stateMutability": "view",
      "type": "function",
      "constant": true
    },
    {
      "inputs": [
        {
          "internalType": "string",
          "name": "name",
          "type": "string"
        },
        {
          "internalType": "int256",
          "name": "score",
          "type": "int256"
        }
      ],
      "name": "AddPersonScore",
      "outputs": [],
      "stateMutability": "nonpayable",
      "type": "function"
    },
    {
      "inputs": [
        {
          "internalType": "string",
          "name": "name",
          "type": "string"
        }
      ],
      "name": "GetScore",
      "outputs": [
        {
          "internalType": "int256",
          "name": "",
          "type": "int256"
        }
      ],
      "stateMutability": "nonpayable",
      "type": "function"
    }
  ],
  "bytecode": "0x608060405234801561001057600080fd5b50610464806100206000396000f3fe608060405234801561001057600080fd5b50600436106100415760003560e01c8063308d1964146100465780636af72f2514610076578063fdb402b8146100a6575b600080fd5b610060600480360381019061005b9190610298565b6100c2565b60405161006d91906102fa565b60405180910390f35b610090600480360381019061008b9190610298565b6100e9565b60405161009d91906102fa565b60405180910390f35b6100c060048036038101906100bb9190610341565b610117565b005b600080826040516100d39190610417565b9081526020016040518091039020549050919050565b6000818051602081018201805184825260208301602085012081835280955050505050506000915090505481565b806000836040516101289190610417565b9081526020016040518091039020819055505050565b6000604051905090565b600080fd5b600080fd5b600080fd5b600080fd5b6000601f19601f8301169050919050565b7f4e487b7100000000000000000000000000000000000000000000000000000000600052604160045260246000fd5b6101a58261015c565b810181811067ffffffffffffffff821117156101c4576101c361016d565b5b80604052505050565b60006101d761013e565b90506101e3828261019c565b919050565b600067ffffffffffffffff8211156102035761020261016d565b5b61020c8261015c565b9050602081019050919050565b82818337600083830152505050565b600061023b610236846101e8565b6101cd565b90508281526020810184848401111561025757610256610157565b5b610262848285610219565b509392505050565b600082601f83011261027f5761027e610152565b5b813561028f848260208601610228565b91505092915050565b6000602082840312156102ae576102ad610148565b5b600082013567ffffffffffffffff8111156102cc576102cb61014d565b5b6102d88482850161026a565b91505092915050565b6000819050919050565b6102f4816102e1565b82525050565b600060208201905061030f60008301846102eb565b92915050565b61031e816102e1565b811461032957600080fd5b50565b60008135905061033b81610315565b92915050565b6000806040838503121561035857610357610148565b5b600083013567ffffffffffffffff8111156103765761037561014d565b5b6103828582860161026a565b92505060206103938582860161032c565b9150509250929050565b600081519050919050565b600081905092915050565b60005b838110156103d15780820151818401526020810190506103b6565b838111156103e0576000848401525b50505050565b60006103f18261039d565b6103fb81856103a8565b935061040b8185602086016103b3565b80840191505092915050565b600061042382846103e6565b91508190509291505056fea26469706673582212204ef33936999e455fc2f38a5685fca62ac4d63ba654b9767e4c240657393004e264736f6c634300080a0033",
  "immutableReferences": {},
  "source": "pragma solidity >=0.4.20;\n\ncontract ScoreStore {\n    mapping(string => int256) public PersonScores;\n\n    function AddPersonScore(string memory name, int256 score) public {\n        PersonScores[name] = score;\n    }\n\n    function GetScore(string memory name) public returns (int256) {\n        return PersonScores[name];\n    }\n}\n",
  "sourcePath": "/mnt/c/Users/eduar/development/courses/blockcain-fundamentals/ScoreStore/contracts/ScoreStore.sol",
  "compiler": {
    "name": "solc",
    "version": "0.8.10+commit.fc410830.Emscripten.clang"
  },
  "schemaVersion": "3.4.3",
  "updatedAt": "2021-12-05T14:55:00.407Z",
  "networkType": "ethereum",
  "devdoc": {
    "kind": "dev",
    "methods": {},
    "version": 1
  },
  "userdoc": {
    "kind": "user",
    "methods": {},
    "version": 1
  }
}